{
  "_format": "hh-sol-artifact-1",
  "contractName": "SpermAnalysisNFT",
  "sourceName": "contracts/SpermAnalysisNFT.sol",
  "abi": [
    {
      "inputs": [],
      "stateMutability": "nonpayable",
      "type": "constructor"
    },
    {
      "anonymous": false,
      "inputs": [
        {
          "indexed": true,
          "internalType": "address",
          "name": "owner",
          "type": "address"
        },
        {
          "indexed": true,
          "internalType": "address",
          "name": "approved",
          "type": "address"
        },
        {
          "indexed": true,
          "internalType": "uint256",
          "name": "tokenId",
          "type": "uint256"
        }
      ],
      "name": "Approval",
      "type": "event"
    },
    {
      "anonymous": false,
      "inputs": [
        {
          "indexed": true,
          "internalType": "address",
          "name": "owner",
          "type": "address"
        },
        {
          "indexed": true,
          "internalType": "address",
          "name": "operator",
          "type": "address"
        },
        {
          "indexed": false,
          "internalType": "bool",
          "name": "approved",
          "type": "bool"
        }
      ],
      "name": "ApprovalForAll",
      "type": "event"
    },
    {
      "anonymous": false,
      "inputs": [
        {
          "indexed": true,
          "internalType": "address",
          "name": "previousOwner",
          "type": "address"
        },
        {
          "indexed": true,
          "internalType": "address",
          "name": "newOwner",
          "type": "address"
        }
      ],
      "name": "OwnershipTransferred",
      "type": "event"
    },
    {
      "anonymous": false,
      "inputs": [
        {
          "indexed": true,
          "internalType": "address",
          "name": "from",
          "type": "address"
        },
        {
          "indexed": true,
          "internalType": "address",
          "name": "to",
          "type": "address"
        },
        {
          "indexed": true,
          "internalType": "uint256",
          "name": "tokenId",
          "type": "uint256"
        }
      ],
      "name": "Transfer",
      "type": "event"
    },
    {
      "inputs": [
        {
          "internalType": "uint256",
          "name": "",
          "type": "uint256"
        }
      ],
      "name": "analysisResults",
      "outputs": [
        {
          "internalType": "uint256",
          "name": "averageCount",
          "type": "uint256"
        },
        {
          "internalType": "uint256",
          "name": "normalizedMotilityScore",
          "type": "uint256"
        },
        {
          "internalType": "string",
          "name": "grade",
          "type": "string"
        }
      ],
      "stateMutability": "view",
      "type": "function"
    },
    {
      "inputs": [
        {
          "internalType": "address",
          "name": "to",
          "type": "address"
        },
        {
          "internalType": "uint256",
          "name": "tokenId",
          "type": "uint256"
        }
      ],
      "name": "approve",
      "outputs": [],
      "stateMutability": "nonpayable",
      "type": "function"
    },
    {
      "inputs": [
        {
          "internalType": "address",
          "name": "owner",
          "type": "address"
        }
      ],
      "name": "balanceOf",
      "outputs": [
        {
          "internalType": "uint256",
          "name": "",
          "type": "uint256"
        }
      ],
      "stateMutability": "view",
      "type": "function"
    },
    {
      "inputs": [
        {
          "internalType": "uint256",
          "name": "tokenId",
          "type": "uint256"
        }
      ],
      "name": "getApproved",
      "outputs": [
        {
          "internalType": "address",
          "name": "",
          "type": "address"
        }
      ],
      "stateMutability": "view",
      "type": "function"
    },
    {
      "inputs": [
        {
          "internalType": "address",
          "name": "owner",
          "type": "address"
        },
        {
          "internalType": "address",
          "name": "operator",
          "type": "address"
        }
      ],
      "name": "isApprovedForAll",
      "outputs": [
        {
          "internalType": "bool",
          "name": "",
          "type": "bool"
        }
      ],
      "stateMutability": "view",
      "type": "function"
    },
    {
      "inputs": [
        {
          "internalType": "address",
          "name": "recipient",
          "type": "address"
        },
        {
          "internalType": "uint256",
          "name": "averageCount",
          "type": "uint256"
        },
        {
          "internalType": "uint256",
          "name": "normalizedMotilityScore",
          "type": "uint256"
        }
      ],
      "name": "mintNFT",
      "outputs": [
        {
          "internalType": "uint256",
          "name": "",
          "type": "uint256"
        }
      ],
      "stateMutability": "nonpayable",
      "type": "function"
    },
    {
      "inputs": [],
      "name": "name",
      "outputs": [
        {
          "internalType": "string",
          "name": "",
          "type": "string"
        }
      ],
      "stateMutability": "view",
      "type": "function"
    },
    {
      "inputs": [],
      "name": "owner",
      "outputs": [
        {
          "internalType": "address",
          "name": "",
          "type": "address"
        }
      ],
      "stateMutability": "view",
      "type": "function"
    },
    {
      "inputs": [
        {
          "internalType": "uint256",
          "name": "tokenId",
          "type": "uint256"
        }
      ],
      "name": "ownerOf",
      "outputs": [
        {
          "internalType": "address",
          "name": "",
          "type": "address"
        }
      ],
      "stateMutability": "view",
      "type": "function"
    },
    {
      "inputs": [],
      "name": "renounceOwnership",
      "outputs": [],
      "stateMutability": "nonpayable",
      "type": "function"
    },
    {
      "inputs": [
        {
          "internalType": "address",
          "name": "from",
          "type": "address"
        },
        {
          "internalType": "address",
          "name": "to",
          "type": "address"
        },
        {
          "internalType": "uint256",
          "name": "tokenId",
          "type": "uint256"
        }
      ],
      "name": "safeTransferFrom",
      "outputs": [],
      "stateMutability": "nonpayable",
      "type": "function"
    },
    {
      "inputs": [
        {
          "internalType": "address",
          "name": "from",
          "type": "address"
        },
        {
          "internalType": "address",
          "name": "to",
          "type": "address"
        },
        {
          "internalType": "uint256",
          "name": "tokenId",
          "type": "uint256"
        },
        {
          "internalType": "bytes",
          "name": "data",
          "type": "bytes"
        }
      ],
      "name": "safeTransferFrom",
      "outputs": [],
      "stateMutability": "nonpayable",
      "type": "function"
    },
    {
      "inputs": [
        {
          "internalType": "address",
          "name": "operator",
          "type": "address"
        },
        {
          "internalType": "bool",
          "name": "approved",
          "type": "bool"
        }
      ],
      "name": "setApprovalForAll",
      "outputs": [],
      "stateMutability": "nonpayable",
      "type": "function"
    },
    {
      "inputs": [
        {
          "internalType": "bytes4",
          "name": "interfaceId",
          "type": "bytes4"
        }
      ],
      "name": "supportsInterface",
      "outputs": [
        {
          "internalType": "bool",
          "name": "",
          "type": "bool"
        }
      ],
      "stateMutability": "view",
      "type": "function"
    },
    {
      "inputs": [],
      "name": "symbol",
      "outputs": [
        {
          "internalType": "string",
          "name": "",
          "type": "string"
        }
      ],
      "stateMutability": "view",
      "type": "function"
    },
    {
      "inputs": [
        {
          "internalType": "uint256",
          "name": "tokenId",
          "type": "uint256"
        }
      ],
      "name": "tokenURI",
      "outputs": [
        {
          "internalType": "string",
          "name": "",
          "type": "string"
        }
      ],
      "stateMutability": "view",
      "type": "function"
    },
    {
      "inputs": [
        {
          "internalType": "address",
          "name": "from",
          "type": "address"
        },
        {
          "internalType": "address",
          "name": "to",
          "type": "address"
        },
        {
          "internalType": "uint256",
          "name": "tokenId",
          "type": "uint256"
        }
      ],
      "name": "transferFrom",
      "outputs": [],
      "stateMutability": "nonpayable",
      "type": "function"
    },
    {
      "inputs": [
        {
          "internalType": "address",
          "name": "newOwner",
          "type": "address"
        }
      ],
      "name": "transferOwnership",
      "outputs": [],
      "stateMutability": "nonpayable",
      "type": "function"
    }
  ],
  "bytecode": "0x60806040523480156200001157600080fd5b506040518060400160405280601081526020017f537065726d416e616c797369734e4654000000000000000000000000000000008152506040518060400160405280600581526020017f535045524d00000000000000000000000000000000000000000000000000000081525081600090816200008f919062000412565b508060019081620000a1919062000412565b505050620000c4620000b8620000ca60201b60201c565b620000d260201b60201c565b620004f9565b600033905090565b6000600660009054906101000a900473ffffffffffffffffffffffffffffffffffffffff16905081600660006101000a81548173ffffffffffffffffffffffffffffffffffffffff021916908373ffffffffffffffffffffffffffffffffffffffff1602179055508173ffffffffffffffffffffffffffffffffffffffff168173ffffffffffffffffffffffffffffffffffffffff167f8be0079c531659141344cd1fd0a4f28419497f9722a3daafe3b4186f6b6457e060405160405180910390a35050565b600081519050919050565b7f4e487b7100000000000000000000000000000000000000000000000000000000600052604160045260246000fd5b7f4e487b7100000000000000000000000000000000000000000000000000000000600052602260045260246000fd5b600060028204905060018216806200021a57607f821691505b60208210810362000230576200022f620001d2565b5b50919050565b60008190508160005260206000209050919050565b60006020601f8301049050919050565b600082821b905092915050565b6000600883026200029a7fffffffffffffffffffffffffffffffffffffffffffffffffffffffffffffffff826200025b565b620002a686836200025b565b95508019841693508086168417925050509392505050565b6000819050919050565b6000819050919050565b6000620002f3620002ed620002e784620002be565b620002c8565b620002be565b9050919050565b6000819050919050565b6200030f83620002d2565b620003276200031e82620002fa565b84845462000268565b825550505050565b600090565b6200033e6200032f565b6200034b81848462000304565b505050565b5b8181101562000373576200036760008262000334565b60018101905062000351565b5050565b601f821115620003c2576200038c8162000236565b62000397846200024b565b81016020851015620003a7578190505b620003bf620003b6856200024b565b83018262000350565b50505b505050565b600082821c905092915050565b6000620003e760001984600802620003c7565b1980831691505092915050565b6000620004028383620003d4565b9150826002028217905092915050565b6200041d8262000198565b67ffffffffffffffff811115620004395762000438620001a3565b5b62000445825462000201565b6200045282828562000377565b600060209050601f8311600181146200048a576000841562000475578287015190505b620004818582620003f4565b865550620004f1565b601f1984166200049a8662000236565b60005b82811015620004c4578489015182556001820191506020850194506020810190506200049d565b86831015620004e45784890151620004e0601f891682620003d4565b8355505b6001600288020188555050505b505050505050565b612d5480620005096000396000f3fe608060405234801561001057600080fd5b50600436106101165760003560e01c8063715018a6116100a2578063a22cb46511610071578063a22cb465146102f5578063b88d4fde14610311578063c87b56dd1461032d578063e985e9c51461035d578063f2fde38b1461038d57610116565b8063715018a61461027d57806387f518fe146102875780638da5cb5b146102b957806395d89b41146102d757610116565b806323b872dd116100e957806323b872dd146101b557806342842e0e146101d15780635a9d10a2146101ed5780636352211e1461021d57806370a082311461024d57610116565b806301ffc9a71461011b57806306fdde031461014b578063081812fc14610169578063095ea7b314610199575b600080fd5b61013560048036038101906101309190611c43565b6103a9565b6040516101429190611c8b565b60405180910390f35b61015361048b565b6040516101609190611d36565b60405180910390f35b610183600480360381019061017e9190611d8e565b61051d565b6040516101909190611dfc565b60405180910390f35b6101b360048036038101906101ae9190611e43565b610563565b005b6101cf60048036038101906101ca9190611e83565b61067a565b005b6101eb60048036038101906101e69190611e83565b6106da565b005b61020760048036038101906102029190611ed6565b6106fa565b6040516102149190611f38565b60405180910390f35b61023760048036038101906102329190611d8e565b61079a565b6040516102449190611dfc565b60405180910390f35b61026760048036038101906102629190611f53565b610820565b6040516102749190611f38565b60405180910390f35b6102856108d7565b005b6102a1600480360381019061029c9190611d8e565b6108eb565b6040516102b093929190611f80565b60405180910390f35b6102c161099d565b6040516102ce9190611dfc565b60405180910390f35b6102df6109c7565b6040516102ec9190611d36565b60405180910390f35b61030f600480360381019061030a9190611fea565b610a59565b005b61032b6004803603810190610326919061215f565b610a6f565b005b61034760048036038101906103429190611d8e565b610ad1565b6040516103549190611d36565b60405180910390f35b610377600480360381019061037291906121e2565b610b39565b6040516103849190611c8b565b60405180910390f35b6103a760048036038101906103a29190611f53565b610bcd565b005b60007f80ac58cd000000000000000000000000000000000000000000000000000000007bffffffffffffffffffffffffffffffffffffffffffffffffffffffff1916827bffffffffffffffffffffffffffffffffffffffffffffffffffffffff1916148061047457507f5b5e139f000000000000000000000000000000000000000000000000000000007bffffffffffffffffffffffffffffffffffffffffffffffffffffffff1916827bffffffffffffffffffffffffffffffffffffffffffffffffffffffff1916145b80610484575061048382610c50565b5b9050919050565b60606000805461049a90612251565b80601f01602080910402602001604051908101604052809291908181526020018280546104c690612251565b80156105135780601f106104e857610100808354040283529160200191610513565b820191906000526020600020905b8154815290600101906020018083116104f657829003601f168201915b5050505050905090565b600061052882610cba565b6004600083815260200190815260200160002060009054906101000a900473ffffffffffffffffffffffffffffffffffffffff169050919050565b600061056e8261079a565b90508073ffffffffffffffffffffffffffffffffffffffff168373ffffffffffffffffffffffffffffffffffffffff16036105de576040517f08c379a00000000000000000000000000000000000000000000000000000000081526004016105d5906122f4565b60405180910390fd5b8073ffffffffffffffffffffffffffffffffffffffff166105fd610d05565b73ffffffffffffffffffffffffffffffffffffffff16148061062c575061062b81610626610d05565b610b39565b5b61066b576040517f08c379a000000000000000000000000000000000000000000000000000000000815260040161066290612386565b60405180910390fd5b6106758383610d0d565b505050565b61068b610685610d05565b82610dc6565b6106ca576040517f08c379a00000000000000000000000000000000000000000000000000000000081526004016106c190612418565b60405180910390fd5b6106d5838383610e5b565b505050565b6106f583838360405180602001604052806000815250610a6f565b505050565b6000610704611154565b61070e60076111d2565b600061071a60076111e8565b90506000610727846111f6565b9050604051806060016040528086815260200185815260200182815250600860008481526020019081526020016000206000820151816000015560208201518160010155604082015181600201908161078091906125e4565b5090505061078e86836112c0565b81925050509392505050565b6000806107a6836114dd565b9050600073ffffffffffffffffffffffffffffffffffffffff168173ffffffffffffffffffffffffffffffffffffffff1603610817576040517f08c379a000000000000000000000000000000000000000000000000000000000815260040161080e90612702565b60405180910390fd5b80915050919050565b60008073ffffffffffffffffffffffffffffffffffffffff168273ffffffffffffffffffffffffffffffffffffffff1603610890576040517f08c379a000000000000000000000000000000000000000000000000000000000815260040161088790612794565b60405180910390fd5b600360008373ffffffffffffffffffffffffffffffffffffffff1673ffffffffffffffffffffffffffffffffffffffff168152602001908152602001600020549050919050565b6108df611154565b6108e9600061151a565b565b600860205280600052604060002060009150905080600001549080600101549080600201805461091a90612251565b80601f016020809104026020016040519081016040528092919081815260200182805461094690612251565b80156109935780601f1061096857610100808354040283529160200191610993565b820191906000526020600020905b81548152906001019060200180831161097657829003601f168201915b5050505050905083565b6000600660009054906101000a900473ffffffffffffffffffffffffffffffffffffffff16905090565b6060600180546109d690612251565b80601f0160208091040260200160405190810160405280929190818152602001828054610a0290612251565b8015610a4f5780601f10610a2457610100808354040283529160200191610a4f565b820191906000526020600020905b815481529060010190602001808311610a3257829003601f168201915b5050505050905090565b610a6b610a64610d05565b83836115e0565b5050565b610a80610a7a610d05565b83610dc6565b610abf576040517f08c379a0000000000000000000000000000000000000000000000000000000008152600401610ab690612418565b60405180910390fd5b610acb8484848461174c565b50505050565b6060610adc82610cba565b6000610ae66117a8565b90506000815111610b065760405180602001604052806000815250610b31565b80610b10846117bf565b604051602001610b219291906127f0565b6040516020818303038152906040525b915050919050565b6000600560008473ffffffffffffffffffffffffffffffffffffffff1673ffffffffffffffffffffffffffffffffffffffff16815260200190815260200160002060008373ffffffffffffffffffffffffffffffffffffffff1673ffffffffffffffffffffffffffffffffffffffff16815260200190815260200160002060009054906101000a900460ff16905092915050565b610bd5611154565b600073ffffffffffffffffffffffffffffffffffffffff168173ffffffffffffffffffffffffffffffffffffffff1603610c44576040517f08c379a0000000000000000000000000000000000000000000000000000000008152600401610c3b90612886565b60405180910390fd5b610c4d8161151a565b50565b60007f01ffc9a7000000000000000000000000000000000000000000000000000000007bffffffffffffffffffffffffffffffffffffffffffffffffffffffff1916827bffffffffffffffffffffffffffffffffffffffffffffffffffffffff1916149050919050565b610cc38161188d565b610d02576040517f08c379a0000000000000000000000000000000000000000000000000000000008152600401610cf990612702565b60405180910390fd5b50565b600033905090565b816004600083815260200190815260200160002060006101000a81548173ffffffffffffffffffffffffffffffffffffffff021916908373ffffffffffffffffffffffffffffffffffffffff160217905550808273ffffffffffffffffffffffffffffffffffffffff16610d808361079a565b73ffffffffffffffffffffffffffffffffffffffff167f8c5be1e5ebec7d5bd14f71427d1e84f3dd0314c0f7b2291e5b200ac8c7c3b92560405160405180910390a45050565b600080610dd28361079a565b90508073ffffffffffffffffffffffffffffffffffffffff168473ffffffffffffffffffffffffffffffffffffffff161480610e145750610e138185610b39565b5b80610e5257508373ffffffffffffffffffffffffffffffffffffffff16610e3a8461051d565b73ffffffffffffffffffffffffffffffffffffffff16145b91505092915050565b8273ffffffffffffffffffffffffffffffffffffffff16610e7b8261079a565b73ffffffffffffffffffffffffffffffffffffffff1614610ed1576040517f08c379a0000000000000000000000000000000000000000000000000000000008152600401610ec890612918565b60405180910390fd5b600073ffffffffffffffffffffffffffffffffffffffff168273ffffffffffffffffffffffffffffffffffffffff1603610f40576040517f08c379a0000000000000000000000000000000000000000000000000000000008152600401610f37906129aa565b60405180910390fd5b610f4d83838360016118ce565b8273ffffffffffffffffffffffffffffffffffffffff16610f6d8261079a565b73ffffffffffffffffffffffffffffffffffffffff1614610fc3576040517f08c379a0000000000000000000000000000000000000000000000000000000008152600401610fba90612918565b60405180910390fd5b6004600082815260200190815260200160002060006101000a81549073ffffffffffffffffffffffffffffffffffffffff02191690556001600360008573ffffffffffffffffffffffffffffffffffffffff1673ffffffffffffffffffffffffffffffffffffffff168152602001908152602001600020600082825403925050819055506001600360008473ffffffffffffffffffffffffffffffffffffffff1673ffffffffffffffffffffffffffffffffffffffff16815260200190815260200160002060008282540192505081905550816002600083815260200190815260200160002060006101000a81548173ffffffffffffffffffffffffffffffffffffffff021916908373ffffffffffffffffffffffffffffffffffffffff160217905550808273ffffffffffffffffffffffffffffffffffffffff168473ffffffffffffffffffffffffffffffffffffffff167fddf252ad1be2c89b69c2b068fc378daa952ba7f163c4a11628f55a4df523b3ef60405160405180910390a461114f83838360016118d4565b505050565b61115c610d05565b73ffffffffffffffffffffffffffffffffffffffff1661117a61099d565b73ffffffffffffffffffffffffffffffffffffffff16146111d0576040517f08c379a00000000000000000000000000000000000000000000000000000000081526004016111c790612a16565b60405180910390fd5b565b6001816000016000828254019250508190555050565b600081600001549050919050565b60606046821061123d576040518060400160405280600481526020017f476f6c640000000000000000000000000000000000000000000000000000000081525090506112bb565b60288210611282576040518060400160405280600681526020017f53696c766572000000000000000000000000000000000000000000000000000081525090506112bb565b6040518060400160405280600681526020017f42726f6e7a65000000000000000000000000000000000000000000000000000081525090505b919050565b600073ffffffffffffffffffffffffffffffffffffffff168273ffffffffffffffffffffffffffffffffffffffff160361132f576040517f08c379a000000000000000000000000000000000000000000000000000000000815260040161132690612a82565b60405180910390fd5b6113388161188d565b15611378576040517f08c379a000000000000000000000000000000000000000000000000000000000815260040161136f90612aee565b60405180910390fd5b6113866000838360016118ce565b61138f8161188d565b156113cf576040517f08c379a00000000000000000000000000000000000000000000000000000000081526004016113c690612aee565b60405180910390fd5b6001600360008473ffffffffffffffffffffffffffffffffffffffff1673ffffffffffffffffffffffffffffffffffffffff16815260200190815260200160002060008282540192505081905550816002600083815260200190815260200160002060006101000a81548173ffffffffffffffffffffffffffffffffffffffff021916908373ffffffffffffffffffffffffffffffffffffffff160217905550808273ffffffffffffffffffffffffffffffffffffffff16600073ffffffffffffffffffffffffffffffffffffffff167fddf252ad1be2c89b69c2b068fc378daa952ba7f163c4a11628f55a4df523b3ef60405160405180910390a46114d96000838360016118d4565b5050565b60006002600083815260200190815260200160002060009054906101000a900473ffffffffffffffffffffffffffffffffffffffff169050919050565b6000600660009054906101000a900473ffffffffffffffffffffffffffffffffffffffff16905081600660006101000a81548173ffffffffffffffffffffffffffffffffffffffff021916908373ffffffffffffffffffffffffffffffffffffffff1602179055508173ffffffffffffffffffffffffffffffffffffffff168173ffffffffffffffffffffffffffffffffffffffff167f8be0079c531659141344cd1fd0a4f28419497f9722a3daafe3b4186f6b6457e060405160405180910390a35050565b8173ffffffffffffffffffffffffffffffffffffffff168373ffffffffffffffffffffffffffffffffffffffff160361164e576040517f08c379a000000000000000000000000000000000000000000000000000000000815260040161164590612b5a565b60405180910390fd5b80600560008573ffffffffffffffffffffffffffffffffffffffff1673ffffffffffffffffffffffffffffffffffffffff16815260200190815260200160002060008473ffffffffffffffffffffffffffffffffffffffff1673ffffffffffffffffffffffffffffffffffffffff16815260200190815260200160002060006101000a81548160ff0219169083151502179055508173ffffffffffffffffffffffffffffffffffffffff168373ffffffffffffffffffffffffffffffffffffffff167f17307eab39ab6107e8899845ad3d59bd9653f200f220920489ca2b5937696c318360405161173f9190611c8b565b60405180910390a3505050565b611757848484610e5b565b611763848484846118da565b6117a2576040517f08c379a000000000000000000000000000000000000000000000000000000000815260040161179990612bec565b60405180910390fd5b50505050565b606060405180602001604052806000815250905090565b6060600060016117ce84611a61565b01905060008167ffffffffffffffff8111156117ed576117ec612034565b5b6040519080825280601f01601f19166020018201604052801561181f5781602001600182028036833780820191505090505b509050600082602001820190505b600115611882578080600190039150507f3031323334353637383961626364656600000000000000000000000000000000600a86061a8153600a858161187657611875612c0c565b5b0494506000850361182d575b819350505050919050565b60008073ffffffffffffffffffffffffffffffffffffffff166118af836114dd565b73ffffffffffffffffffffffffffffffffffffffff1614159050919050565b50505050565b50505050565b60006118fb8473ffffffffffffffffffffffffffffffffffffffff16611bb4565b15611a54578373ffffffffffffffffffffffffffffffffffffffff1663150b7a02611924610d05565b8786866040518563ffffffff1660e01b81526004016119469493929190612c90565b6020604051808303816000875af192505050801561198257506040513d601f19601f8201168201806040525081019061197f9190612cf1565b60015b611a04573d80600081146119b2576040519150601f19603f3d011682016040523d82523d6000602084013e6119b7565b606091505b5060008151036119fc576040517f08c379a00000000000000000000000000000000000000000000000000000000081526004016119f390612bec565b60405180910390fd5b805181602001fd5b63150b7a0260e01b7bffffffffffffffffffffffffffffffffffffffffffffffffffffffff1916817bffffffffffffffffffffffffffffffffffffffffffffffffffffffff191614915050611a59565b600190505b949350505050565b600080600090507a184f03e93ff9f4daa797ed6e38ed64bf6a1f0100000000000000008310611abf577a184f03e93ff9f4daa797ed6e38ed64bf6a1f0100000000000000008381611ab557611ab4612c0c565b5b0492506040810190505b6d04ee2d6d415b85acef81000000008310611afc576d04ee2d6d415b85acef81000000008381611af257611af1612c0c565b5b0492506020810190505b662386f26fc100008310611b2b57662386f26fc100008381611b2157611b20612c0c565b5b0492506010810190505b6305f5e1008310611b54576305f5e1008381611b4a57611b49612c0c565b5b0492506008810190505b6127108310611b79576127108381611b6f57611b6e612c0c565b5b0492506004810190505b60648310611b9c5760648381611b9257611b91612c0c565b5b0492506002810190505b600a8310611bab576001810190505b80915050919050565b6000808273ffffffffffffffffffffffffffffffffffffffff163b119050919050565b6000604051905090565b600080fd5b600080fd5b60007fffffffff0000000000000000000000000000000000000000000000000000000082169050919050565b611c2081611beb565b8114611c2b57600080fd5b50565b600081359050611c3d81611c17565b92915050565b600060208284031215611c5957611c58611be1565b5b6000611c6784828501611c2e565b91505092915050565b60008115159050919050565b611c8581611c70565b82525050565b6000602082019050611ca06000830184611c7c565b92915050565b600081519050919050565b600082825260208201905092915050565b60005b83811015611ce0578082015181840152602081019050611cc5565b60008484015250505050565b6000601f19601f8301169050919050565b6000611d0882611ca6565b611d128185611cb1565b9350611d22818560208601611cc2565b611d2b81611cec565b840191505092915050565b60006020820190508181036000830152611d508184611cfd565b905092915050565b6000819050919050565b611d6b81611d58565b8114611d7657600080fd5b50565b600081359050611d8881611d62565b92915050565b600060208284031215611da457611da3611be1565b5b6000611db284828501611d79565b91505092915050565b600073ffffffffffffffffffffffffffffffffffffffff82169050919050565b6000611de682611dbb565b9050919050565b611df681611ddb565b82525050565b6000602082019050611e116000830184611ded565b92915050565b611e2081611ddb565b8114611e2b57600080fd5b50565b600081359050611e3d81611e17565b92915050565b60008060408385031215611e5a57611e59611be1565b5b6000611e6885828601611e2e565b9250506020611e7985828601611d79565b9150509250929050565b600080600060608486031215611e9c57611e9b611be1565b5b6000611eaa86828701611e2e565b9350506020611ebb86828701611e2e565b9250506040611ecc86828701611d79565b9150509250925092565b600080600060608486031215611eef57611eee611be1565b5b6000611efd86828701611e2e565b9350506020611f0e86828701611d79565b9250506040611f1f86828701611d79565b9150509250925092565b611f3281611d58565b82525050565b6000602082019050611f4d6000830184611f29565b92915050565b600060208284031215611f6957611f68611be1565b5b6000611f7784828501611e2e565b91505092915050565b6000606082019050611f956000830186611f29565b611fa26020830185611f29565b8181036040830152611fb48184611cfd565b9050949350505050565b611fc781611c70565b8114611fd257600080fd5b50565b600081359050611fe481611fbe565b92915050565b6000806040838503121561200157612000611be1565b5b600061200f85828601611e2e565b925050602061202085828601611fd5565b9150509250929050565b600080fd5b600080fd5b7f4e487b7100000000000000000000000000000000000000000000000000000000600052604160045260246000fd5b61206c82611cec565b810181811067ffffffffffffffff8211171561208b5761208a612034565b5b80604052505050565b600061209e611bd7565b90506120aa8282612063565b919050565b600067ffffffffffffffff8211156120ca576120c9612034565b5b6120d382611cec565b9050602081019050919050565b82818337600083830152505050565b60006121026120fd846120af565b612094565b90508281526020810184848401111561211e5761211d61202f565b5b6121298482856120e0565b509392505050565b600082601f8301126121465761214561202a565b5b81356121568482602086016120ef565b91505092915050565b6000806000806080858703121561217957612178611be1565b5b600061218787828801611e2e565b945050602061219887828801611e2e565b93505060406121a987828801611d79565b925050606085013567ffffffffffffffff8111156121ca576121c9611be6565b5b6121d687828801612131565b91505092959194509250565b600080604083850312156121f9576121f8611be1565b5b600061220785828601611e2e565b925050602061221885828601611e2e565b9150509250929050565b7f4e487b7100000000000000000000000000000000000000000000000000000000600052602260045260246000fd5b6000600282049050600182168061226957607f821691505b60208210810361227c5761227b612222565b5b50919050565b7f4552433732313a20617070726f76616c20746f2063757272656e74206f776e6560008201527f7200000000000000000000000000000000000000000000000000000000000000602082015250565b60006122de602183611cb1565b91506122e982612282565b604082019050919050565b6000602082019050818103600083015261230d816122d1565b9050919050565b7f4552433732313a20617070726f76652063616c6c6572206973206e6f7420746f60008201527f6b656e206f776e6572206f7220617070726f76656420666f7220616c6c000000602082015250565b6000612370603d83611cb1565b915061237b82612314565b604082019050919050565b6000602082019050818103600083015261239f81612363565b9050919050565b7f4552433732313a2063616c6c6572206973206e6f7420746f6b656e206f776e6560008201527f72206f7220617070726f76656400000000000000000000000000000000000000602082015250565b6000612402602d83611cb1565b915061240d826123a6565b604082019050919050565b60006020820190508181036000830152612431816123f5565b9050919050565b60008190508160005260206000209050919050565b60006020601f8301049050919050565b600082821b905092915050565b60006008830261249a7fffffffffffffffffffffffffffffffffffffffffffffffffffffffffffffffff8261245d565b6124a4868361245d565b95508019841693508086168417925050509392505050565b6000819050919050565b60006124e16124dc6124d784611d58565b6124bc565b611d58565b9050919050565b6000819050919050565b6124fb836124c6565b61250f612507826124e8565b84845461246a565b825550505050565b600090565b612524612517565b61252f8184846124f2565b505050565b5b818110156125535761254860008261251c565b600181019050612535565b5050565b601f8211156125985761256981612438565b6125728461244d565b81016020851015612581578190505b61259561258d8561244d565b830182612534565b50505b505050565b600082821c905092915050565b60006125bb6000198460080261259d565b1980831691505092915050565b60006125d483836125aa565b9150826002028217905092915050565b6125ed82611ca6565b67ffffffffffffffff81111561260657612605612034565b5b6126108254612251565b61261b828285612557565b600060209050601f83116001811461264e576000841561263c578287015190505b61264685826125c8565b8655506126ae565b601f19841661265c86612438565b60005b828110156126845784890151825560018201915060208501945060208101905061265f565b868310156126a1578489015161269d601f8916826125aa565b8355505b6001600288020188555050505b505050505050565b7f4552433732313a20696e76616c696420746f6b656e2049440000000000000000600082015250565b60006126ec601883611cb1565b91506126f7826126b6565b602082019050919050565b6000602082019050818103600083015261271b816126df565b9050919050565b7f4552433732313a2061646472657373207a65726f206973206e6f74206120766160008201527f6c6964206f776e65720000000000000000000000000000000000000000000000602082015250565b600061277e602983611cb1565b915061278982612722565b604082019050919050565b600060208201905081810360008301526127ad81612771565b9050919050565b600081905092915050565b60006127ca82611ca6565b6127d481856127b4565b93506127e4818560208601611cc2565b80840191505092915050565b60006127fc82856127bf565b915061280882846127bf565b91508190509392505050565b7f4f776e61626c653a206e6577206f776e657220697320746865207a65726f206160008201527f6464726573730000000000000000000000000000000000000000000000000000602082015250565b6000612870602683611cb1565b915061287b82612814565b604082019050919050565b6000602082019050818103600083015261289f81612863565b9050919050565b7f4552433732313a207472616e736665722066726f6d20696e636f72726563742060008201527f6f776e6572000000000000000000000000000000000000000000000000000000602082015250565b6000612902602583611cb1565b915061290d826128a6565b604082019050919050565b60006020820190508181036000830152612931816128f5565b9050919050565b7f4552433732313a207472616e7366657220746f20746865207a65726f2061646460008201527f7265737300000000000000000000000000000000000000000000000000000000602082015250565b6000612994602483611cb1565b915061299f82612938565b604082019050919050565b600060208201905081810360008301526129c381612987565b9050919050565b7f4f776e61626c653a2063616c6c6572206973206e6f7420746865206f776e6572600082015250565b6000612a00602083611cb1565b9150612a0b826129ca565b602082019050919050565b60006020820190508181036000830152612a2f816129f3565b9050919050565b7f4552433732313a206d696e7420746f20746865207a65726f2061646472657373600082015250565b6000612a6c602083611cb1565b9150612a7782612a36565b602082019050919050565b60006020820190508181036000830152612a9b81612a5f565b9050919050565b7f4552433732313a20746f6b656e20616c7265616479206d696e74656400000000600082015250565b6000612ad8601c83611cb1565b9150612ae382612aa2565b602082019050919050565b60006020820190508181036000830152612b0781612acb565b9050919050565b7f4552433732313a20617070726f766520746f2063616c6c657200000000000000600082015250565b6000612b44601983611cb1565b9150612b4f82612b0e565b602082019050919050565b60006020820190508181036000830152612b7381612b37565b9050919050565b7f4552433732313a207472616e7366657220746f206e6f6e20455243373231526560008201527f63656976657220696d706c656d656e7465720000000000000000000000000000602082015250565b6000612bd6603283611cb1565b9150612be182612b7a565b604082019050919050565b60006020820190508181036000830152612c0581612bc9565b9050919050565b7f4e487b7100000000000000000000000000000000000000000000000000000000600052601260045260246000fd5b600081519050919050565b600082825260208201905092915050565b6000612c6282612c3b565b612c6c8185612c46565b9350612c7c818560208601611cc2565b612c8581611cec565b840191505092915050565b6000608082019050612ca56000830187611ded565b612cb26020830186611ded565b612cbf6040830185611f29565b8181036060830152612cd18184612c57565b905095945050505050565b600081519050612ceb81611c17565b92915050565b600060208284031215612d0757612d06611be1565b5b6000612d1584828501612cdc565b9150509291505056fea2646970667358221220f93bd4f4dbf1ec0187055dc3c451978086ff5ab5fc3338d6eb5046ca05667a0664736f6c63430008130033",
  "linkReferences": {},
  "deployedLinkReferences": {}
}